{
  "contractName": "Logic1",
  "abi": [
    {
      "inputs": [],
      "name": "admin",
      "outputs": [
        {
          "internalType": "address",
          "name": "",
          "type": "address"
        }
      ],
      "stateMutability": "view",
      "type": "function",
      "constant": true
    },
    {
      "inputs": [],
      "name": "implementation",
      "outputs": [
        {
          "internalType": "address",
          "name": "",
          "type": "address"
        }
      ],
      "stateMutability": "view",
      "type": "function",
      "constant": true
    },
    {
      "inputs": [],
      "name": "words",
      "outputs": [
        {
          "internalType": "string",
          "name": "",
          "type": "string"
        }
      ],
      "stateMutability": "view",
      "type": "function",
      "constant": true
    },
    {
      "inputs": [],
      "name": "foo",
      "outputs": [],
      "stateMutability": "nonpayable",
      "type": "function"
    }
  ],
  "bytecode": "0x608060405234801561001057600080fd5b5061042b806100206000396000f3fe608060405234801561001057600080fd5b506004361061004c5760003560e01c80635c60da1b14610051578063c29855781461006f578063f2c31bd914610079578063f851a44014610097575b600080fd5b6100596100b5565b60405161006691906102bf565b60405180910390f35b6100776100d9565b005b610081610127565b60405161008e9190610373565b60405180910390f35b61009f6101b5565b6040516100ac91906102bf565b60405180910390f35b60008054906101000a900473ffffffffffffffffffffffffffffffffffffffff1681565b6040518060400160405280600381526020017f6f6c640000000000000000000000000000000000000000000000000000000000815250600290805190602001906101249291906101db565b50565b60028054610134906103c4565b80601f0160208091040260200160405190810160405280929190818152602001828054610160906103c4565b80156101ad5780601f10610182576101008083540402835291602001916101ad565b820191906000526020600020905b81548152906001019060200180831161019057829003601f168201915b505050505081565b600160009054906101000a900473ffffffffffffffffffffffffffffffffffffffff1681565b8280546101e7906103c4565b90600052602060002090601f0160209004810192826102095760008555610250565b82601f1061022257805160ff1916838001178555610250565b82800160010185558215610250579182015b8281111561024f578251825591602001919060010190610234565b5b50905061025d9190610261565b5090565b5b8082111561027a576000816000905550600101610262565b5090565b600073ffffffffffffffffffffffffffffffffffffffff82169050919050565b60006102a98261027e565b9050919050565b6102b98161029e565b82525050565b60006020820190506102d460008301846102b0565b92915050565b600081519050919050565b600082825260208201905092915050565b60005b838110156103145780820151818401526020810190506102f9565b83811115610323576000848401525b50505050565b6000601f19601f8301169050919050565b6000610345826102da565b61034f81856102e5565b935061035f8185602086016102f6565b61036881610329565b840191505092915050565b6000602082019050818103600083015261038d818461033a565b905092915050565b7f4e487b7100000000000000000000000000000000000000000000000000000000600052602260045260246000fd5b600060028204905060018216806103dc57607f821691505b6020821081036103ef576103ee610395565b5b5091905056fea26469706673582212207dbae23c03d0696b2837a7ade5c7253c2ba176a29ab669c0f9197923b30d310964736f6c634300080d0033",
  "immutableReferences": {},
  "source": "// SPDX-License-Identifier: MIT\npragma solidity ^0.8.13;\n// 1\ncontract Logic1 {\n    // proxy\n    address public implementation;\n    address public admin;\n    string public words; // \n\n    // proxy 0xc2985578\n    function foo() public{\n        words = \"old\";\n    }\n}\n",
  "sourcePath": "/Users/mohaijiang/tmp/truffle-migration-example/contracts/Logic1.sol",
  "compiler": {
    "name": "solc",
    "version": "0.8.13+commit.abaa5c0e.Emscripten.clang"
  },
  "schemaVersion": "3.4.11",
  "updatedAt": "2023-05-06T06:52:58.757Z",
  "networkType": "ethereum",
  "devdoc": {
    "kind": "dev",
    "methods": {},
    "version": 1
  },
  "userdoc": {
    "kind": "user",
    "methods": {},
    "version": 1
  }
}