{
  "contractName": "SimpleUpgrade",
  "abi": [
    {
      "inputs": [
        {
          "internalType": "address",
          "name": "_implementation",
          "type": "address"
        }
      ],
      "stateMutability": "nonpayable",
      "type": "constructor"
    },
    {
      "stateMutability": "payable",
      "type": "fallback",
      "payable": true
    },
    {
      "inputs": [],
      "name": "admin",
      "outputs": [
        {
          "internalType": "address",
          "name": "",
          "type": "address"
        }
      ],
      "stateMutability": "view",
      "type": "function",
      "constant": true
    },
    {
      "inputs": [],
      "name": "implementation",
      "outputs": [
        {
          "internalType": "address",
          "name": "",
          "type": "address"
        }
      ],
      "stateMutability": "view",
      "type": "function",
      "constant": true
    },
    {
      "inputs": [],
      "name": "words",
      "outputs": [
        {
          "internalType": "string",
          "name": "",
          "type": "string"
        }
      ],
      "stateMutability": "view",
      "type": "function",
      "constant": true
    },
    {
      "inputs": [
        {
          "internalType": "address",
          "name": "newImplementation",
          "type": "address"
        }
      ],
      "name": "upgrade",
      "outputs": [],
      "stateMutability": "nonpayable",
      "type": "function"
    }
  ],
  "bytecode": "0x608060405234801561001057600080fd5b506040516106ab3803806106ab8339818101604052810190610032919061011c565b33600160006101000a81548173ffffffffffffffffffffffffffffffffffffffff021916908373ffffffffffffffffffffffffffffffffffffffff160217905550806000806101000a81548173ffffffffffffffffffffffffffffffffffffffff021916908373ffffffffffffffffffffffffffffffffffffffff16021790555050610149565b600080fd5b600073ffffffffffffffffffffffffffffffffffffffff82169050919050565b60006100e9826100be565b9050919050565b6100f9816100de565b811461010457600080fd5b50565b600081519050610116816100f0565b92915050565b600060208284031215610132576101316100b9565b5b600061014084828501610107565b91505092915050565b610553806101586000396000f3fe6080604052600436106100435760003560e01c80630900f010146100d15780635c60da1b146100fa578063f2c31bd914610125578063f851a4401461015057610044565b5b60008060008054906101000a900473ffffffffffffffffffffffffffffffffffffffff1673ffffffffffffffffffffffffffffffffffffffff1660003660405161008f92919061032f565b600060405180830381855af49150503d80600081146100ca576040519150601f19603f3d011682016040523d82523d6000602084013e6100cf565b606091505b005b3480156100dd57600080fd5b506100f860048036038101906100f391906103ab565b61017b565b005b34801561010657600080fd5b5061010f610218565b60405161011c91906103e7565b60405180910390f35b34801561013157600080fd5b5061013a61023c565b604051610147919061049b565b60405180910390f35b34801561015c57600080fd5b506101656102ca565b60405161017291906103e7565b60405180910390f35b600160009054906101000a900473ffffffffffffffffffffffffffffffffffffffff1673ffffffffffffffffffffffffffffffffffffffff163373ffffffffffffffffffffffffffffffffffffffff16146101d557600080fd5b806000806101000a81548173ffffffffffffffffffffffffffffffffffffffff021916908373ffffffffffffffffffffffffffffffffffffffff16021790555050565b60008054906101000a900473ffffffffffffffffffffffffffffffffffffffff1681565b60028054610249906104ec565b80601f0160208091040260200160405190810160405280929190818152602001828054610275906104ec565b80156102c25780601f10610297576101008083540402835291602001916102c2565b820191906000526020600020905b8154815290600101906020018083116102a557829003601f168201915b505050505081565b600160009054906101000a900473ffffffffffffffffffffffffffffffffffffffff1681565b600081905092915050565b82818337600083830152505050565b600061031683856102f0565b93506103238385846102fb565b82840190509392505050565b600061033c82848661030a565b91508190509392505050565b600080fd5b600073ffffffffffffffffffffffffffffffffffffffff82169050919050565b60006103788261034d565b9050919050565b6103888161036d565b811461039357600080fd5b50565b6000813590506103a58161037f565b92915050565b6000602082840312156103c1576103c0610348565b5b60006103cf84828501610396565b91505092915050565b6103e18161036d565b82525050565b60006020820190506103fc60008301846103d8565b92915050565b600081519050919050565b600082825260208201905092915050565b60005b8381101561043c578082015181840152602081019050610421565b8381111561044b576000848401525b50505050565b6000601f19601f8301169050919050565b600061046d82610402565b610477818561040d565b935061048781856020860161041e565b61049081610451565b840191505092915050565b600060208201905081810360008301526104b58184610462565b905092915050565b7f4e487b7100000000000000000000000000000000000000000000000000000000600052602260045260246000fd5b6000600282049050600182168061050457607f821691505b602082108103610517576105166104bd565b5b5091905056fea26469706673582212207a9b64cbb8ab23368de3298f82eba6f08cf069357c8e5ec34dc3e5a51c06bf8a64736f6c634300080d0033",
  "immutableReferences": {},
  "source": "// SPDX-License-Identifier: MIT\npragma solidity ^0.8.13;\n\n// \n// \ncontract SimpleUpgrade {\n    address public implementation; // \n    address public admin; // admin\n    string public words; // \n\n    // admin\n    constructor(address _implementation){\n        admin = msg.sender;\n        implementation = _implementation;\n    }\n\n    // fallback\n    fallback() external payable {\n        (bool success, bytes memory data) = implementation.delegatecall(msg.data);\n    }\n\n    // admin\n    function upgrade(address newImplementation) external {\n        require(msg.sender == admin);\n        implementation = newImplementation;\n    }\n}\n",
  "sourcePath": "/Users/mohaijiang/tmp/truffle-migration-example/contracts/SimpleUpgrade.sol",
  "compiler": {
    "name": "solc",
    "version": "0.8.13+commit.abaa5c0e.Emscripten.clang"
  },
  "schemaVersion": "3.4.11",
  "updatedAt": "2023-05-06T06:52:59.216Z",
  "networkType": "ethereum",
  "devdoc": {
    "kind": "dev",
    "methods": {},
    "version": 1
  },
  "userdoc": {
    "kind": "user",
    "methods": {},
    "version": 1
  }
}